:100000000C9446000C9465000C9465000C946500FB
:100010000C9465000C9465000C9465000C946500CC
:100020000C9465000C9465000C9465000C946500BC
:100030000C9465000C94C0010C9465000C94650050
:100040000C9465000C9465000C9465000C9465009C
:100050000C9465000C9465000C9465000C9465008C
:100060000C9465000C9465000C9465000C9465007C
:100070000C9465000C9465000C9465000C9465006C
:100080000C9465000C9465000C94650011241FBE4F
:10009000CFEFD0E4DEBFCDBF11E0A0E0B1E0EEE3F2
:1000A000FAE000E00BBF02C007900D92A831B10743
:1000B000D9F721E0A8E1B1E001C01D92A235B20755
:1000C000E1F70E94B7030C941D050C940000CF9338
:1000D000DF9300D01F92CDB7DEB789837B836A831D
:1000E00089818A3031F48A819B81BC018DE00E9434
:1000F000670080EC90E0FC018081882F90E08072A6
:100100009927892BB1F386EC90E02981FC012083AB
:1001100080E090E00F900F900F90DF91CF910895C5
:10012000CF93DF9300D000D0CDB7DEB769837A8359
:100130008B839C8389819A81AB81BC8180930E01E2
:1001400090930F01A0931001B093110180910E01C3
:1001500090910F01A0911001B091110180931901AC
:1001600090931A01A0931B01B0931C0100000F9003
:100170000F900F900F90DF91CF910895CF93DF9361
:10018000CDB7DEB781E890E02BE0FC01208388E862
:1001900090E02DE730E0FC01318320838FE690E092
:1001A00022E0FC01208384E890E0FC0111821082AF
:1001B00080910E0190910F01A0911001B091110159
:1001C0008093190190931A01A0931B01B0931C0115
:1001D0008FE590E02FE530E0F90120812068FC01F7
:1001E00020830000DF91CF910895CF93DF93CDB7A7
:1001F000DEB781E890E0FC0110820000DF91CF9132
:1002000008950F931F93CF93DF931F92CDB7DEB75F
:100210001982A6C08981282F30E0C901880F991F53
:10022000820F931F880F991F880F991F8C5D9E4F17
:10023000FC0120813181428153818981682F70E0E6
:10024000CB01880F991F860F971F880F991F880F62
:10025000991F805E9E4FFC0180819181A281B381B4
:10026000281739074A075B0708F449C08981082F16
:1002700010E08981282F30E0C901880F991F820F73
:10028000931F880F991F880F991F885D9E4FFC014F
:10029000408151818981282F30E0C901880F991F41
:1002A000820F931F880F991F880F991F825E9E4FA0
:1002B000FC0180819181FA0109959C01C801880F98
:1002C000991F800F911F880F991F880F991F825EB9
:1002D0009E4FFC01318320838981282F30E0C901A2
:1002E000880F991F820F931F880F991F880F991FDE
:1002F0008C5D9E4FFC0110821182128213828981D3
:10030000682F70E08981282F30E0C901880F991F7C
:10031000820F931F880F991F880F991F8C5D9E4F26
:10032000FC0180819181A281B38121E030E040E035
:1003300050E0280F391F4A1F5B1FCB01880F991F00
:10034000860F971F880F991F880F991F8C5D9E4FEE
:10035000FC01208331834283538389818F5F8983AA
:100360008981282F30E084E090E02817390708F4CD
:1003700051CF00000F90DF91CF911F910F91089501
:100380001F920F9200905F000F92112400905B006B
:100390000F922F933F934F935F936F937F938F931E
:1003A0009F93AF93BF93EF93FF93CF93DF93CDB71B
:1003B000DEB78091190190911A01A0911B01B091B3
:1003C0001C010197A109B1098093190190931A01A9
:1003D000A0931B01B0931C018091190190911A0107
:1003E000A0911B01B0911C01892B8A2B8B2B91F4BE
:1003F0000E94010180910E0190910F01A0911001C6
:10040000B09111018093190190931A01A0931B01DF
:10041000B0931C010000DF91CF91FF91EF91BF914C
:10042000AF919F918F917F916F915F914F913F918C
:100430002F910F9000925B000F9000925F000F9041
:100440001F901895CF93DF9300D0CDB7DEB79A8376
:10045000898389819A81009719F0019741F011C031
:1004600010921D0181E090E09A8389830AC081E0A7
:1004700090E09A83898380911D018F5F80931D0195
:10048000000089819A810097E1F0019709F01AC074
:1004900020911D018BEA289F812D1124982F96957C
:1004A000892F880F890F922F981B292F30E081E028
:1004B00090E002C0880F991F2A95E2F780934E01C1
:1004C00001C0000089819A810F900F90DF91CF9138
:1004D0000895CF93DF9300D0CDB7DEB79A83898399
:1004E00089819A81009719F0019749F00DC081E048
:1004F00090E09A83898381E08093510105C081E077
:1005000090E09A838983000089819A81009761F045
:10051000019709F00AC09091510181E0992309F0F7
:1005200080E08093510101C0000089819A810F9081
:100530000F90DF91CF910895CF93DF9300D0CDB787
:10054000DEB79A83898389819A818130910591F000
:10055000823091051CF4892B41F09CC082309105BA
:1005600049F1039709F45DC095C081E090E09A835A
:10057000898391C080E290E0FC018081882F90E027
:1005800084709927892B39F41092500182E090E011
:100590009A83898380C080E290E0FC018081882F6B
:1005A00090E084709927892B29F081E090E09A836C
:1005B000898371C080E290E0FC018081882F90E007
:1005C00084709927892B49F480915001823028F456
:1005D00082E090E09A8389835EC080E290E0FC0133
:1005E0008081882F90E084709927892B49F480912D
:1005F0005001823028F083E090E09A8389834BC0D9
:1006000080E290E0FC018081882F90E0847099273F
:10061000892B39F081E090E09A83898310924F0111
:100620003AC080E290E0FC018081882F90E08470E5
:100630009927892B49F480915001843028F483E074
:1006400090E09A83898327C080E290E0FC0180815A
:10065000882F90E084709927892B59F4809150015C
:10066000843038F01092500182E090E09A838983C0
:1006700012C080E290E0FC018081882F90E08470BD
:100680009927892B39F081E090E09A838983109231
:100690004F0101C0000089819A818130910561F08C
:1006A000823091051CF4892BE9F01DC08230910540
:1006B00041F0039779F017C010924F01109250014A
:1006C00012C080E180934F01809150018F5F809331
:1006D000500109C010924F01809150018F5F8093AB
:1006E000500101C0000089819A810F900F90DF9125
:1006F000CF910895CF93DF9300D0CDB7DEB79A8323
:10070000898389819A81009719F0019731F00AC095
:1007100081E090E09A83898305C081E090E09A832C
:100720008983000089819A810097C9F0019709F0B7
:1007300017C085E290E020915101222F30E0220F76
:10074000331F220F331F220F331F322F20914E01F0
:10075000232B30914F01232BFC01208301C000008B
:1007600089819A810F900F90DF91CF910895CF9357
:10077000DF931F92CDB7DEB781E290E0FC011082DB
:1007800082E290E02FEFFC01208384E290E02FEFE3
:10079000FC01208385E290E0FC01108219828981AE
:1007A000282F30E0C901880F991F820F931F880FEF
:1007B000991F880F991F825E9E4FFC011182108243
:1007C0008981282F30E0C901880F991F820F931F5C
:1007D000880F991F880F991F9C01205E3E4F8CE265
:1007E00091E0A0E0B0E0F90180839183A283B3831C
:1007F0008981282F30E0C901880F991F820F931F2C
:10080000880F991F880F991F8C5D9E4FFC011082E5
:100810001182128213828981282F30E0C901880F4A
:10082000991F820F931F880F991F880F991F885D4A
:100830009E4F22E232E0FC013183208389818F5F69
:1008400089838981282F30E0C901880F991F820F81
:10085000931F880F991F880F991F825E9E4FFC017E
:10086000118210828981282F30E0C901880F991FD9
:10087000820F931F880F991F880F991F9C01205E7C
:100880003E4F88EE93E0A0E0B0E0F90180839183D1
:10089000A283B3838981282F30E0C901880F991F73
:1008A000820F931F880F991F880F991F8C5D9E4F91
:1008B000FC0110821182128213828981282F30E07C
:1008C000C901880F991F820F931F880F991F880FE6
:1008D000991F885D9E4F29E632E0FC013183208319
:1008E00089818F5F89838981282F30E0C901880F32
:1008F000991F820F931F880F991F880F991F825E7F
:100900009E4FFC01118210828981282F30E0C9019D
:10091000880F991F820F931F880F991F880F991FA7
:100920009C01205E3E4F81E090E0A0E0B0E0F90144
:1009300080839183A283B3838981282F30E0C9010A
:10094000880F991F820F931F880F991F880F991F77
:100950008C5D9E4FFC01108211821282138289816C
:10096000282F30E0C901880F991F820F931F880F2D
:10097000991F880F991F885D9E4F2CE932E0FC017A
:100980003183208389818F5F89838981282F30E09B
:10099000C901880F991F820F931F880F991F880F15
:1009A000991F825E9E4FFC01118210828981282F3F
:1009B00030E0C901880F991F820F931F880F991F7C
:1009C000880F991F9C01205E3E4F81E090E0A0E0DF
:1009D000B0E0F90180839183A283B3838981282FBA
:1009E00030E0C901880F991F820F931F880F991F4C
:1009F000880F991F8C5D9E4FFC011082118212821C
:100A000013828981282F30E0C901880F991F820F36
:100A1000931F880F991F880F991F885D9E4F2AE7A3
:100A200033E0FC013183208361E070E080E090E0FE
:0E0A30000E9490000E94BE00FFCFF894FFCFFE
:100A3E00000000020000000067000000000001003E
:080A4E0000000400010000009B
:00000001FF
