:100000000C9446000C9465000C9465000C946500FB
:100010000C9465000C9465000C9465000C946500CC
:100020000C9465000C9465000C9465000C946500BC
:100030000C9465000C94C0010C9465000C94650050
:100040000C9465000C9465000C9465000C9465009C
:100050000C9465000C9465000C9465000C9465008C
:100060000C9465000C9465000C9465000C9465007C
:100070000C9465000C9465000C9465000C9465006C
:100080000C9465000C9465000C94650011241FBE4F
:10009000CFEFD0E4DEBFCDBF11E0A0E0B1E0EEEBEA
:1000A000FCE000E00BBF02C007900D92AA31B1073F
:1000B000D9F721E0AAE1B1E001C01D92A036B20754
:1000C000E1F70E94A5040C945D060C940000CF9308
:1000D000DF9300D01F92CDB7DEB789837B836A831D
:1000E00089818A3031F48A819B81BC018DE00E9434
:1000F000670080EC90E0FC018081882F90E08072A6
:100100009927892BB1F386EC90E02981FC012083AB
:1001100080E090E00F900F900F90DF91CF910895C5
:10012000CF93DF9300D000D0CDB7DEB769837A8359
:100130008B839C8389819A81AB81BC8180930E01E2
:1001400090930F01A0931001B093110180910E01C3
:1001500090910F01A0911001B091110180931B01AA
:1001600090931C01A0931D01B0931E0100000F90FD
:100170000F900F900F90DF91CF910895CF93DF9361
:10018000CDB7DEB781E890E02BE0FC01208388E862
:1001900090E02DE730E0FC01318320838FE690E092
:1001A00022E0FC01208384E890E0FC0111821082AF
:1001B00080910E0190910F01A0911001B091110159
:1001C00080931B0190931C01A0931D01B0931E010D
:1001D0008FE590E02FE530E0F90120812068FC01F7
:1001E00020830000DF91CF910895CF93DF93CDB7A7
:1001F000DEB781E890E0FC0110820000DF91CF9132
:1002000008950F931F93CF93DF931F92CDB7DEB75F
:100210001982A6C08981282F30E0C901880F991F53
:10022000820F931F880F991F880F991F8A5D9E4F19
:10023000FC0120813181428153818981682F70E0E6
:10024000CB01880F991F860F971F880F991F880F62
:10025000991F8E5D9E4FFC0180819181A281B381A7
:10026000281739074A075B0708F449C08981082F16
:1002700010E08981282F30E0C901880F991F820F73
:10028000931F880F991F880F991F865D9E4FFC0151
:10029000408151818981282F30E0C901880F991F41
:1002A000820F931F880F991F880F991F805E9E4FA2
:1002B000FC0180819181FA0109959C01C801880F98
:1002C000991F800F911F880F991F880F991F805EBB
:1002D0009E4FFC01318320838981282F30E0C901A2
:1002E000880F991F820F931F880F991F880F991FDE
:1002F0008A5D9E4FFC0110821182128213828981D5
:10030000682F70E08981282F30E0C901880F991F7C
:10031000820F931F880F991F880F991F8A5D9E4F28
:10032000FC0180819181A281B38121E030E040E035
:1003300050E0280F391F4A1F5B1FCB01880F991F00
:10034000860F971F880F991F880F991F8A5D9E4FF0
:10035000FC01208331834283538389818F5F8983AA
:100360008981282F30E085E090E02817390708F4CC
:1003700051CF00000F90DF91CF911F910F91089501
:100380001F920F9200905F000F92112400905B006B
:100390000F922F933F934F935F936F937F938F931E
:1003A0009F93AF93BF93EF93FF93CF93DF93CDB71B
:1003B000DEB780911B0190911C01A0911D01B091AD
:1003C0001E010197A109B10980931B0190931C01A3
:1003D000A0931D01B0931E0180911B0190911C01FF
:1003E000A0911D01B0911E01892B8A2B8B2B91F4BA
:1003F0000E94010180910E0190910F01A0911001C6
:10040000B091110180931B0190931C01A0931D01D9
:10041000B0931E010000DF91CF91FF91EF91BF914A
:10042000AF919F918F917F916F915F914F913F918C
:100430002F910F9000925B000F9000925F000F9041
:100440001F901895CF93DF9300D0CDB7DEB79A8376
:10045000898389819A81009719F0019741F011C031
:1004600010921F0181E090E09A8389830AC081E0A5
:1004700090E09A83898380911F018F5F80931F0191
:10048000000089819A810097E1F0019709F01AC074
:1004900020911F018BEA289F812D1124982F96957A
:1004A000892F880F890F922F981B292F30E081E028
:1004B00090E002C0880F991F2A95E2F780935C01B3
:1004C00001C0000089819A810F900F90DF91CF9138
:1004D0000895CF93DF9300D0CDB7DEB79A83898399
:1004E00089819A81009719F0019749F00DC081E048
:1004F00090E09A83898381E080935F0105C081E069
:1005000090E09A838983000089819A81009761F045
:10051000019709F00AC090915F0181E0992309F0E9
:1005200080E080935F0101C0000089819A810F9073
:100530000F90DF91CF910895CF93DF9300D0CDB787
:10054000DEB79A83898389819A818130910591F000
:10055000823091051CF4892B41F0BAC0823091059C
:1005600049F1039709F461C0B3C081E090E09A8338
:100570008983AFC080E290E0FC018081882F90E009
:1005800084709927892B39F410925E0182E090E003
:100590009A8389839EC080E290E0FC018081882F4D
:1005A00090E084709927892B29F081E090E09A836C
:1005B00089838FC080E290E0FC018081882F90E0E9
:1005C00084709927892B59F490915E0180911201D2
:1005D000981728F482E090E09A8389837AC080E2B9
:1005E00090E0FC018081882F90E084709927892B0E
:1005F00059F490915E0180911201981728F083E0E0
:1006000090E09A83898365C080E290E0FC0180815C
:10061000882F90E084709927892B39F081E090E051
:100620009A83898310925D0154C080E290E0FC01BE
:100630008081882F90E084709927892BB1F4809174
:100640005E01282F30E080911201482F50E0809108
:100650001201882F90E0840F951F281739072CF47A
:1006600083E090E09A83898334C080E290E0FC01CB
:100670008081882F90E084709927892BC1F4809124
:100680005E01282F30E080911201482F50E08091C8
:100690001201882F90E0840F951F281739073CF02E
:1006A00010925E0182E090E09A83898312C080E21A
:1006B00090E0FC018081882F90E084709927892B3D
:1006C00039F081E090E09A83898310925D0101C046
:1006D000000089819A818130910561F08230910515
:1006E0001CF4892BE9F01DC08230910541F003977D
:1006F00079F017C010925D0110925E0112C080E186
:1007000080935D0180915E018F5F80935E0109C0DF
:1007100010925D0180915E018F5F80935E0101C048
:10072000000089819A810F900F90DF91CF910895F9
:10073000CF93DF9300D000D0CDB7DEB79C838B83FF
:1007400080E290E0FC018081882F90E08170992701
:1007500021E0892B09F020E0298380E290E0FC0170
:100760008081882F90E080959095959587958170F0
:100770008A838B819C818130910599F0823091052B
:100780001CF4892B49F09BC08230910509F448C0C4
:10079000039709F46AC093C081E090E09C838B8347
:1007A0008EC08981282F30E081E09A81992309F059
:1007B00080E0882F90E082239323892B79F082E0D8
:1007C00090E09C838B8380911201893008F072C085
:1007D000809112018F5F809312016CC081E099813A
:1007E000992309F080E0282F30E08A81882F90E05B
:1007F00082239323892B79F083E090E09C838B8381
:1008000080911201823008F455C08091120181500C
:10081000809312014FC081E090E09C838B834AC09B
:100820008981282F30E081E09A81992309F080E0C6
:10083000882F90E082239323892B29F082E090E097
:100840009C838B8339C091E08981882309F090E0F3
:1008500081E02A81222309F080E08923882361F145
:1008600081E090E09C838B8327C08A81282F30E031
:1008700081E09981992309F080E0882F90E082231C
:100880009323892B29F083E090E09C838B8316C00F
:1008900091E08981882309F090E081E02A81222378
:1008A00009F080E08923882349F081E090E09C836F
:1008B0008B8304C0000003C0000001C000008B81D6
:1008C0009C810F900F900F900F90DF91CF91089522
:1008D000CF93DF9300D0CDB7DEB79A838983898128
:1008E0009A81009719F0019731F00AC081E090E0F9
:1008F0009A83898305C081E090E09A838983000010
:1009000089819A810097C9F0019709F017C085E2A3
:1009100090E020915F01222F30E0220F331F220F41
:10092000331F220F331F322F20915C01232B309174
:100930005D01232BFC01208301C0000089819A8185
:100940000F900F90DF91CF910895CF93DF931F9277
:10095000CDB7DEB781E290E0FC01108282E290E048
:100960002FEFFC01208384E290E02FEFFC01208335
:1009700085E290E0FC01108219828981282F30E005
:10098000C901880F991F820F931F880F991F880F25
:10099000991F805E9E4FFC01118210828981282F51
:1009A00030E0C901880F991F820F931F880F991F8C
:1009B000880F991F9C012E5D3E4F8CE291E0A0E0D4
:1009C000B0E0F90180839183A283B3838981282FCA
:1009D00030E0C901880F991F820F931F880F991F5C
:1009E000880F991F8A5D9E4FFC011082118212822E
:1009F00013828981282F30E0C901880F991F820F47
:100A0000931F880F991F880F991F865D9E4F22E2C2
:100A100032E0FC013183208389818F5F8983898162
:100A2000282F30E0C901880F991F820F931F880F6C
:100A3000991F880F991F805E9E4FFC0111821082C2
:100A40008981282F30E0C901880F991F820F931FD9
:100A5000880F991F880F991F9C012E5D3E4F88EECD
:100A600093E0A0E0B0E0F90180839183A283B38397
:100A70008981282F30E0C901880F991F820F931FA9
:100A8000880F991F880F991F8A5D9E4FFC01108265
:100A90001182128213828981282F30E0C901880FC8
:100AA000991F820F931F880F991F880F991F865DCA
:100AB0009E4F29E632E0FC013183208389818F5FDC
:100AC00089838981282F30E0C901880F991F820FFF
:100AD000931F880F991F880F991F805E9E4FFC01FE
:100AE000118210828981282F30E0C901880F991F57
:100AF000820F931F880F991F880F991F9C012E5DED
:100B00003E4F84E690E0A0E0B0E0F901808391835D
:100B1000A283B3838981282F30E0C901880F991FF0
:100B2000820F931F880F991F880F991F8A5D9E4F10
:100B3000FC0110821182128213828981282F30E0F9
:100B4000C901880F991F820F931F880F991F880F63
:100B5000991F865D9E4F28E933E0FC013183208395
:100B600089818F5F89838981282F30E0C901880FAF
:100B7000991F820F931F880F991F880F991F805EFE
:100B80009E4FFC01118210828981282F30E0C9011B
:100B9000880F991F820F931F880F991F880F991F25
:100BA0009C012E5D3E4F81E090E0A0E0B0E0F901B5
:100BB00080839183A283B3838981282F30E0C90188
:100BC000880F991F820F931F880F991F880F991FF5
:100BD0008A5D9E4FFC0110821182128213828981EC
:100BE000282F30E0C901880F991F820F931F880FAB
:100BF000991F880F991F865D9E4F2CE932E0FC01FA
:100C00003183208389818F5F89838981282F30E018
:100C1000C901880F991F820F931F880F991F880F92
:100C2000991F805E9E4FFC01118210828981282FBE
:100C300030E0C901880F991F820F931F880F991FF9
:100C4000880F991F9C012E5D3E4F81E090E0A0E04F
:100C5000B0E0F90180839183A283B3838981282F37
:100C600030E0C901880F991F820F931F880F991FC9
:100C7000880F991F8A5D9E4FFC011082118212829B
:100C800013828981282F30E0C901880F991F820FB4
:100C9000931F880F991F880F991F865D9E4F28E626
:100CA00034E0FC013183208361E070E080E090E07B
:0E0CB0000E9490000E94BE00FFCFF894FFCF7C
:100CBE0000000002000000006700000000000100BC
:0A0CCE000000020500010000000014
:00000001FF
