:100000000C9446000C9465000C9465000C946500FB
:100010000C9465000C9465000C9465000C946500CC
:100020000C9465000C9465000C9465000C946500BC
:100030000C9465000C94C0010C9465000C94650050
:100040000C9465000C9465000C9465000C9465009C
:100050000C9465000C9465000C9465000C9465008C
:100060000C9465000C9465000C9465000C9465007C
:100070000C9465000C9465000C9465000C9465006C
:100080000C9465000C9465000C94650011241FBE4F
:10009000CFEFD0E4DEBFCDBF11E0A0E0B1E0E6ECF1
:1000A000F7E000E00BBF02C007900D92A831B10746
:1000B000D9F721E0A8E1B1E001C01D92A434B20754
:1000C000E1F70E94D6020C94E1030C940000CF9358
:1000D000DF9300D01F92CDB7DEB789837B836A831D
:1000E00089818A3031F48A819B81BC018DE00E9434
:1000F000670080EC90E0FC018081882F90E08072A6
:100100009927892BB1F386EC90E02981FC012083AB
:1001100080E090E00F900F900F90DF91CF910895C5
:10012000CF93DF9300D000D0CDB7DEB769837A8359
:100130008B839C8389819A81AB81BC8180930E01E2
:1001400090930F01A0931001B093110180910E01C3
:1001500090910F01A0911001B091110180931901AC
:1001600090931A01A0931B01B0931C0100000F9003
:100170000F900F900F90DF91CF910895CF93DF9361
:10018000CDB7DEB781E890E02BE0FC01208388E862
:1001900090E02DE730E0FC01318320838FE690E092
:1001A00022E0FC01208384E890E0FC0111821082AF
:1001B00080910E0190910F01A0911001B091110159
:1001C0008093190190931A01A0931B01B0931C0115
:1001D0008FE590E02FE530E0F90120812068FC01F7
:1001E00020830000DF91CF910895CF93DF93CDB7A7
:1001F000DEB781E890E0FC0110820000DF91CF9132
:1002000008950F931F93CF93DF931F92CDB7DEB75F
:100210001982A6C08981282F30E0C901880F991F53
:10022000820F931F880F991F880F991F8C5D9E4F17
:10023000FC0120813181428153818981682F70E0E6
:10024000CB01880F991F860F971F880F991F880F62
:10025000991F805E9E4FFC0180819181A281B381B4
:10026000281739074A075B0708F449C08981082F16
:1002700010E08981282F30E0C901880F991F820F73
:10028000931F880F991F880F991F885D9E4FFC014F
:10029000408151818981282F30E0C901880F991F41
:1002A000820F931F880F991F880F991F825E9E4FA0
:1002B000FC0180819181FA0109959C01C801880F98
:1002C000991F800F911F880F991F880F991F825EB9
:1002D0009E4FFC01318320838981282F30E0C901A2
:1002E000880F991F820F931F880F991F880F991FDE
:1002F0008C5D9E4FFC0110821182128213828981D3
:10030000682F70E08981282F30E0C901880F991F7C
:10031000820F931F880F991F880F991F8C5D9E4F26
:10032000FC0180819181A281B38124E630E040E02C
:1003300050E0280F391F4A1F5B1FCB01880F991F00
:10034000860F971F880F991F880F991F8C5D9E4FEE
:10035000FC01208331834283538389818F5F8983AA
:100360008981282F30E083E090E02817390708F4CE
:1003700051CF00000F90DF91CF911F910F91089501
:100380001F920F9200905F000F92112400905B006B
:100390000F922F933F934F935F936F937F938F931E
:1003A0009F93AF93BF93EF93FF93CF93DF93CDB71B
:1003B000DEB78091190190911A01A0911B01B091B3
:1003C0001C010197A109B1098093190190931A01A9
:1003D000A0931B01B0931C018091190190911A0107
:1003E000A0911B01B0911C01892B8A2B8B2B91F4BE
:1003F0000E94010180910E0190910F01A0911001C6
:10040000B09111018093190190931A01A0931B01DF
:10041000B0931C010000DF91CF91FF91EF91BF914C
:10042000AF919F918F917F916F915F914F913F918C
:100430002F910F9000925B000F9000925F000F9041
:100440001F901895CF93DF9300D0CDB7DEB79A8376
:10045000898389819A81009719F0019741F011C031
:1004600010921D0181E090E09A8389830AC081E0A7
:1004700090E09A83898380911D018F5F80931D0195
:10048000000089819A810097E1F0019709F01AC074
:1004900020911D018BEA289F812D1124982F96957C
:1004A000892F880F890F922F981B292F30E081E028
:1004B00090E002C0880F991F2A95E2F780934201CD
:1004C00001C0000089819A810F900F90DF91CF9138
:1004D0000895CF93DF9300D0CDB7DEB79A83898399
:1004E00089819A81009719F0019749F00DC081E048
:1004F00090E09A83898381E08093430105C081E085
:1005000090E09A838983000089819A81009761F045
:10051000019709F00AC09091430181E0992309F005
:1005200080E08093430101C0000089819A810F908F
:100530000F90DF91CF910895CF93DF9300D0CDB787
:10054000DEB79A83898389819A81009719F0019790
:1005500031F00AC081E090E09A83898305C081E090
:1005600090E09A838983000089819A810097B1F095
:10057000019709F014C085E290E020914301222FF9
:1005800030E0220F331F220F331F220F331F322F71
:1005900020914201232BFC01208301C000008981AE
:1005A0009A810F900F90DF91CF910895CF93DF93B1
:1005B0001F92CDB7DEB784E290E02FEFFC012083DD
:1005C00085E290E0FC01108219828981282F30E0B9
:1005D000C901880F991F820F931F880F991F880FD9
:1005E000991F825E9E4FFC01118210828981282F03
:1005F00030E0C901880F991F820F931F880F991F40
:10060000880F991F9C01205E3E4F8CE291E0A0E094
:10061000B0E0F90180839183A283B3838981282F7D
:1006200030E0C901880F991F820F931F880F991F0F
:10063000880F991F8C5D9E4FFC01108211821282DF
:1006400013828981282F30E0C901880F991F820FFA
:10065000931F880F991F880F991F885D9E4F22E274
:1006600032E0FC013183208389818F5F8983898116
:10067000282F30E0C901880F991F820F931F880F20
:10068000991F880F991F825E9E4FFC011182108274
:100690008981282F30E0C901880F991F820F931F8D
:1006A000880F991F880F991F9C01205E3E4F88EE8E
:1006B00093E0A0E0B0E0F90180839183A283B3834B
:1006C0008981282F30E0C901880F991F820F931F5D
:1006D000880F991F880F991F8C5D9E4FFC01108217
:1006E0001182128213828981282F30E0C901880F7C
:1006F000991F820F931F880F991F880F991F885D7C
:100700009E4F29E632E0FC013183208389818F5F8F
:1007100089838981282F30E0C901880F991F820FB2
:10072000931F880F991F880F991F825E9E4FFC01AF
:10073000118210828981282F30E0C901880F991F0A
:10074000820F931F880F991F880F991F9C01205EAD
:100750003E4F84E690E0A0E0B0E0F9018083918311
:10076000A283B3838981282F30E0C901880F991FA4
:10077000820F931F880F991F880F991F8C5D9E4FC2
:10078000FC0110821182128213828981282F30E0AD
:10079000C901880F991F820F931F880F991F880F17
:1007A000991F885D9E4F2CE932E0FC013183208344
:1007B00064E670E080E090E00E9490000E94BE003D
:0607C000FFCFF894FFCF0B
:1007C60000000002000000006700000000000100B9
:0807D6000000030064000000B4
:00000001FF
